:020000040800F2
:10000000004000207DB80008DDB50008E3B5000819
:1000100000000000000000000000000000000000E0
:10002000000000000000000000000000E9B500082A
:100030000000000000000000F3B50008FDB5000856
:10004000CDB8000800000000CDB80008CDB8000809
:10005000CDB80008CDB80008CDB800080DB600082E
:1000600000000000CDB80008CDB80008CDB80008E9
:10007000CDB80008CDB80008CDB8000800000000D9
:10008000CDB8000841B600086DB60008A1B600085A
:10009000CDB80008CDB80008CDB80008CDB800082C
:1000A000CDB80008CDB80008CDB8000811B70008D9
:1000B000CDB80008C1B7000800000000CDB80008A6
:1000C00010B5064C2378002B07D1054B002B02D02E
:1000D000044800E000BF0123237010BD0C00002085
:1000E00000000000FCF80008044B10B5002B03D002
:1000F0000349044800E000BF10BDC04600000000F6
:1001000010000020FCF800080023C25C0133002A24
:10011000FBD1581E70470000002243088B4274D365
:1001200003098B425FD3030A8B4244D3030B8B42F8
:1001300028D3030C8B420DD3FF22090212BA030C01
:100140008B4202D31212090265D0030B8B4219D3E2
:1001500000E0090AC30B8B4201D3CB03C01A524102
:10016000830B8B4201D38B03C01A5241430B8B424A
:1001700001D34B03C01A5241030B8B4201D30B0333
:10018000C01A5241C30A8B4201D3CB02C01A52415A
:10019000830A8B4201D38B02C01A5241430A8B421D
:1001A00001D34B02C01A5241030A8B4201D30B0206
:1001B000C01A5241CDD2C3098B4201D3CB01C01A20
:1001C000524183098B4201D38B01C01A524143092A
:1001D0008B4201D34B01C01A524103098B4201D318
:1001E0000B01C01A5241C3088B4201D3CB00C01A85
:1001F000524183088B4201D38B00C01A52414308FD
:100200008B4201D34B00C01A5241411A00D2014621
:10021000524110467047FFE701B5002000F0F0F8AA
:1002200002BDC0460029F7D076E7704703460B436E
:100230007FD4002243088B4274D303098B425FD3DF
:10024000030A8B4244D3030B8B4228D3030C8B420B
:100250000DD3FF22090212BA030C8B4202D31212F1
:10026000090265D0030B8B4219D300E0090AC30BC6
:100270008B4201D3CB03C01A5241830B8B4201D373
:100280008B03C01A5241430B8B4201D34B03C01A5C
:100290005241030B8B4201D30B03C01A5241C30AD4
:1002A0008B4201D3CB02C01A5241830A8B4201D345
:1002B0008B02C01A5241430A8B4201D34B02C01A2F
:1002C0005241030A8B4201D30B02C01A5241CDD2D4
:1002D000C3098B4201D3CB01C01A524183098B421F
:1002E00001D38B01C01A524143098B4201D34B0108
:1002F000C01A524103098B4201D30B01C01A52416B
:10030000C3088B4201D3CB00C01A524183088B42F1
:1003100001D38B00C01A524143088B4201D34B00DA
:10032000C01A5241411A00D201465241104670474C
:100330005DE0CA0F00D04942031000D34042534051
:1003400000229C4603098B422DD3030A8B4212D311
:10035000FC22890112BA030A8B420CD38901921143
:100360008B4208D3890192118B4204D389013AD080
:10037000921100E08909C3098B4201D3CB01C01A55
:10038000524183098B4201D38B01C01A5241430968
:100390008B4201D34B01C01A524103098B4201D356
:1003A0000B01C01A5241C3088B4201D3CB00C01AC3
:1003B000524183088B4201D38B00C01A5241D9D2DB
:1003C00043088B4201D34B00C01A5241411A00D25C
:1003D0000146634652415B10104601D34042002B58
:1003E00000D54942704763465B1000D3404201B5D7
:1003F000002000F005F802BD0029F8D016E770478C
:100400007047C0469E2110B5C905041C02F016F8BD
:10041000002803D1201C00F0CDFD10BD9E21201C22
:10042000C90500F003FC00F0C5FD80231B069C46B7
:100430006044F2E770B500220C4B04000D0001F09F
:10044000C3FF002804D12000290001F019FF70BD6E
:10045000064B00222000290001F0CAFB01F010FF2A
:1004600080231B069C466044F1E7C0460000E04143
:10047000F8B54746CE4643025B0A4400C20F9C468D
:100480004800DD004B02240E5B0A000E80B5984642
:1004900026009146C90FDB00271A8A4229D0002F77
:1004A00015DD00284AD1002B00D095E0ED08FF2C87
:1004B00000D188E06B025B0AE6B25B02F605580ADF
:1004C0003043D20710430CBC90469946F8BD002F2C
:1004D00000D087E0601CC0B2012800DCB6E0EE1A54
:1004E000720100D5C5E0002E3DD100220026002378
:1004F000E3E7002F00DC96E000285DD0FF2C60D001
:100500008022D20413431B2F00DDECE02022D21BFB
:1005100018009340F8405A1E93410343ED186B01B5
:100520007BD50134FF2C00D1B7E0012207262A40F9
:100530006B089A4D1D4015432E4029E0FF2CB5D085
:100540008022D20413431B2F00DDB2E02022D21BF5
:1005500019009340F9405A1E93410B43ED1A6B0169
:100560005BD5AD01AE09300001F072FF0538864061
:10057000844265DC041B330020200134E340041B6B
:10058000A640751EAE41334307261D0000241E40C1
:1005900001224B461A40002E04D00F232B40042B7F
:1005A00000D004356B0100D480E70134E6B2FF2CA3
:1005B0002FD1FF26002380E7002B52D1FF2C00D043
:1005C00074E70A00ED08002DF3D08023DB032B43F2
:1005D0005B025B0AFF2670E7013F002FBED0FF2CB5
:1005E000B1D163E7002C47D0FF2869D08024E40410
:1005F0007A4225431B2A00DDC5E02C002026D4408A
:10060000B21A95406A1E954125435D1B0400894638
:10061000A5E7AB015B0A50E7002401224B461A40D4
:100620006B07BAD142E7002F3BD10134E0B2012879
:100630004ADDFF2CBDD00726ED186D082E40A7E738
:100640000723574D241A35401E40A1E7002C1BD12B
:10065000002D6ED1002B00D19AE00A001D003C0055
:1006600024E7013F002F00D158E7FF2C00D04AE7D4
:10067000A7E75E1B894676E7002D1CD10A00FF28FC
:100680001FD004001D0011E7002D5DD1002B17D1F4
:1006900080230022DB03FF260FE70A00FF2600234A
:1006A0000BE7002C21D1002D66D1FF28E9D11D00D8
:1006B00087E7012352E77A1CA7D0FA43FF2899D194
:1006C0000A001D00FF24F1E6002E21D1002D4FD09D
:1006D000002B4CD0ED186B019ED5314B07362E40C8
:1006E00001241D4054E7012318E7FF28DFD08024B0
:1006F000E4047F4225431B2F4DDC2026F61B2C00F3
:10070000B540FC406A1E95412543ED18040006E7FC
:10071000002DCCD0002B00D153E780216046C903C7
:10072000084203D04046084200D11D00012111407B
:1007300047E7002B00D1B9E6EA1A500125D5072674
:100740005D1B2E40894623E7FF24002B00D1ADE638
:1007500080226046D203104204D04046104201D1AC
:100760001D00894601224B46FF241A409EE62B00BD
:10077000DD080A0000249DE67A1CC6D0FF43FF284E
:10078000B9D11D001DE701253FE7151E00D044E744
:100790000022002391E60125B7E7C046FFFFFF7D59
:1007A000FFFFFFFBF8B557464E464546DE4644027E
:1007B000E0B546008846640A360EC70F002E63D0A7
:1007C000FF2E24D08023E400DB041C430023994641
:1007D0009B467F3E434642465D02D20F5B006D0A58
:1007E0001B0E9046924665D0FF2B55D080220021EB
:1007F000ED00D2047F3B1543F61A43464A467B4040
:100800000F2A00D98DE06D48920082589746002C3F
:1008100054D108239946063BFF269B46DAE700257C
:10082000534602291BD0032900D1BFE0012928D05B
:1008300030007F30002820DD6A0704D00F222A40D4
:10084000042A00D004352A0103D530005C4A8030E8
:100850001540FE2803DCAC01640AC2B201E0FF22AD
:1008600000246402D205600ADB07104318433CBC35
:1008700090469946A246AB46F8BD0122101A1B28A5
:100880007CDD00220024ECE7002C1DD104239946D6
:10089000033B00269B469DE7FF3E002D20D1022111
:1008A00043464A467B400A430F2AD8D8454892001F
:1008B00082589746002D19D10121F1E70C23994662
:1008C000093BFF269B4685E7200001F0C1FD762607
:1008D000431F9C4000237642361A99469B4679E78F
:1008E0004A4603231A439146032186E7280001F074
:1008F000AFFD431F36189D40763600217DE78024EA
:100900000023E403FF22ACE700258023DB031C4225
:1009100028D01D4226D12B435C02640A4346FF22A5
:100920009FE762016C01A24224D21B210025013EF7
:10093000012710006D005200002801DB944201D80D
:10094000121B3D4301390029F3D11400621E94416A
:1009500025436DE7BA46594625005346022900D083
:1009600061E77CE78023DB031C436402640A3B00ED
:10097000FF2276E7121B1A210125D9E79E362A00AD
:10098000B5402C00C240651EAC411443620704D040
:100990000F222240042A00D00434620103D4A401AF
:1009A000640A00225DE7012200245AE78024E40360
:1009B0002C436402640AFF2253E7C04654FD00083A
:1009C000FFFFFFF794FD0008F0B54E465746454639
:1009D000DE46E0B543025B0A450083B00F1C994632
:1009E0002D0EC60F002D57D0FF2D24D08020DB0008
:1009F000C0041843002381469A469B467F3D7C02F3
:100A00007A00FB0F640A120E984623D0FF2A4BD0BF
:100A1000E30080240020E4047F3A1C43AD186B1CE3
:100A200047460193534677403A000F2B48D87D49FB
:100A30009B00CB589F46002B00D085E008339A4698
:100A4000063B9B467C027A00FB0FFF25640A120ED0
:100A50009846DBD1002C00D090E0524601231A4387
:100A600092460120DBE74C4658461700022824D066
:100A7000032800D1CFE00022002301284DD15802E5
:100A8000D205400AFF071043384303B03CBC9046F0
:100A90009946A246AB46F0BD002B5BD104239A4693
:100AA000033B00259B46AAE7FF35002C60D1524648
:100AB00002231A4392460220B1E7FF220023DEE719
:100AC0004B461B0C9C464B462604360C18046146CC
:100AD0003300220C6446000C43434E4350435443BE
:100AE00080191A0C1218964203D9802149028C46AB
:100AF00064441B041B0C1004C01883015E1EB34128
:100B0000800E1843130C1B199B0103431C00230187
:100B100079D5012362081C401443019A7F32002AD0
:100B20004DDD630704D00F232340042B00D0043491
:100B3000230103D53C4B019A1C408032FE2ABCDCC9
:100B4000A3015B0AD2B29AE70C239A46093BFF2520
:100B50009B4654E7180001F07BFC4A46431F76256C
:100B60009A4000236D4291462D1A9A469B4646E7CD
:100B7000524603231A439246032050E7200001F017
:100B800067FC431F2D1A9C40763D002047E78023D9
:100B90000027DB03FF2272E7424666E74C4632003D
:100BA000584662E780234A46DB031A4222D01C42A1
:100BB00020D123435B025B0A4746FF225FE7012304
:100BC0009A1A1B2A21DC23000199D3409E318C40C4
:100BD0001A0023005C1EA34113435A0704D00F22BE
:100BE0001A40042A00D004335A0111D49B015B0A35
:100BF000002244E780234A46DB0313435B025B0A7F
:100C00003700FF223BE7019587E70022002336E704
:100C10000122002333E78023DB0323435B025B0ACB
:100C2000FF222CE7D4FD0008FFFFFFF7F8B5474689
:100C3000CE464400C20F80B547024802400A8446AF
:100C4000664648007F0A240EF60025009046FB0009
:100C5000000EC90FB146FF2800D185E00126714082
:100C6000261A914257D0002E43DD002800D07FE0A5
:100C70004946002900D1AAE0013E002E00D0F7E04D
:100C80005B1A5A0100D48BE09B019C09200001F003
:100C9000DFFB05388440854200DDD3E0451B23009F
:100CA00020200135EB40451BAC40621E944123439C
:100CB000072400251C40012241460A40002C04D094
:100CC0000F211940042900D00433590100D480E0D9
:100CD0000135ECB2FF2D00D0A3E0FF2400235B021E
:100CE000E405580AD207204310430CBC90469946AD
:100CF000F8BD002E74D1601CC0B2012800DCA7E052
:100D00004A469C1A620100D5B6E0002CBED10022F2
:100D100000240023E3E7002E00DC85E0002846D015
:100D2000FF2C49D080224846D2041043814601223C
:100D30001B2E09DC20204C46801B84404A462000A4
:100D4000F240441EA04102439B185A0128D50135A8
:100D5000FF2D00D1A8E00122072494491A405B0826
:100D60000B4013431C40A6E7002E00D078E775E740
:100D7000FF2C54D080224946D204114389460122D7
:100D80001B2E09DC20214846891B88404A46010069
:100D9000F240481E81410A439B1A5A0100D573E76D
:100DA000012241460A40590700D089E711E0484630
:100DB000002858D1FF2C0CD1DB08002B00D18CE788
:100DC0008020C00303435B025B0AFF2487E7FF2CFC
:100DD00025D0DB08FF2DF0D05B025B0AECB27EE78A
:100DE000002C4DD0FF2818D08024E4047242234305
:100DF0001B2A00DDC4E01C002025D440AA1A934021
:100E00005A1E934123434A460500D31A884638E7C1
:100E1000721CF8D0F243FF28EAD10A004B46FF25A6
:100E2000D7E79B015B0A5AE7002E41D1651CE9B266
:100E3000012945DDFF2D00D14FE707244B445B0816
:100E40001C4038E707225A4B2D1A2340144032E742
:100E5000002C1DD1002B7AD14B46002B00D191E004
:100E60000A000025B5E7013E002E19D14B446CE77E
:100E7000FF2C84D1FF25ACE74A468846D41A05E703
:100E8000002BC5D10A00FF28C8D005004B46A0E7BB
:100E9000002B49D14B46002B77D00A00FF2598E75D
:100EA000FF2C00D043E787E70A00FF24002316E762
:100EB000002C15D1002B57D1FF28E6D14B467BE7FC
:100EC000002C20D1002B57D04946002953D04B4449
:100ED0005A0168D50724364A1C4001251340EAE62A
:100EE000FF28EBD08022D204764213431B2E53DC22
:100EF0002025AD1B1A00AB40F2405C1EA3411343FA
:100F00004B44050021E7002BD8D04946002900D1E9
:100F100052E78021C9030F4200D14DE760460842E5
:100F200000D049E74B4647E74846FF25002800D157
:100F30004FE78022D203174204D06046104201D10D
:100F40004B46884601224146FF250A4041E7484674
:100F500000281FD01A1A500120D54A460724D31A58
:100F60001C4088460025A6E6741CC9D0F643FF281D
:100F7000BCD14B4620E799464B460025DB082BE7C2
:100F8000012340E700220023A9E680230022DB039F
:100F9000FF24A4E600251CE70123B1E7002AF1D0D5
:100FA00013000025FCE60025FAE6C046FFFFFF7DA2
:100FB000FFFFFFFB41024200C30F490A120E00204F
:100FC0007E2A0DD99D2A0CD8802000040143952A41
:100FD0000ADC9620821AD1404842002B00D108003A
:100FE0007047034A9818FBE7963A9140F4E7C046E9
:100FF000FFFFFF7F70B500283DD0C317C5185D40C7
:10100000C40F280001F024FA9E22121A962A07DC47
:10101000D2B2082833DD083885406802400A23E050
:10102000992A0BDD052329001B1AD94003001B3325
:101030009D402B005D1EAB4119430D00052801DDCD
:10104000431F9D402B000F490B406E0709D00F2610
:101050003540042D05D004335D0102D59F220B409D
:10106000121A9B01580AD2B24002D205400AE40784
:101070001043204370BD002400220020F4E76802E2
:10108000400AF1E7FFFFFFFB70B5041E34D001F00A
:10109000DFF99E22121A962A07DCD2B208282EDD2A
:1010A000083884406002400A21E0992A09DD0300E3
:1010B00021001B3399404B1E994105231B1ADC402C
:1010C0000C43052801DD431F9C4023000D490B40C4
:1010D000650709D00F252C40042C05D004335C0192
:1010E00002D59F220B40121A9B01580AD2B240022D
:1010F000D205400A104370BD00220020F7E76002CD
:10110000400AF4E7FFFFFFFBF0B55746DE464E46C8
:101110004546E0B5834607000E03480085B0924679
:101120001C00360B400DCD0F002800D19DE0954BE3
:10113000984239D08023F6001B041E43924A7B0F4D
:1011400033439946944603006344009300230026EA
:10115000FF00029323031B0B98466300E40F5246E3
:101160005B0D019400D1B3E086498B4200D19EE033
:101170004246D100802212040A435146490F1143CE
:101180008B46814952468C4600996344CB1A002114
:10119000D20000932B0063409A460F2E00D905E140
:1011A0007A4BB6009B599F465B463343994600D025
:1011B000B8E002230826002700900293CAE7CB4636
:1011C0003A0002990195019B9A46022927D00329EA
:1011D00000D180E2012944D06D49009B8C466344D4
:1011E0001C00002C38DD530700D013E2D2085B4608
:1011F000DB0109D55946674B19408B468021C90050
:101200008C46009B63441C00634B9C4207DC5B469E
:1012100064055F075B0217431B0B620D02E00023AE
:101220000027584A00211B031C0B0B0D1B052343F1
:1012300014055A4A380013401C4353466400DB0728
:1012400064081C43210005B03CBC90469946A24668
:10125000AB46F0BD0122524201231B1B382B00DCA0
:10126000ADE1002200230027DCE75B4633439946CB
:101270005ED0002E00D18AE1300001F0E9F80300D1
:101280000B3B1C2B00DD7BE11D22D31A5A460100CB
:10129000DA4008398E4013005F46334399468F4049
:1012A0003F4B00261B1A00930023029352E741464E
:1012B00053460B433B499B468C46009B634400933B
:1012C0005B46002B3BD1022300221E43022161E733
:1012D000434613439B4637D04346002B00D162E17F
:1012E000404601F0B5F803000B3B1C2B00DD53E139
:1012F00002004146083A914088461D21CB1A5146CA
:10130000D9400B0041460B439B46534693401A007D
:10131000009B25499C46604403008C46634400932F
:10132000002137E70323B14600900C26029311E712
:101330000023009301330426002702930AE70323C6
:10134000C3461E43032125E701331E43002201212A
:1013500020E700239A46802300271B03094A61E700
:10136000802349461B03194200D1E2E05946194245
:1013700000D0DEE00B431B0317001B0BA246014A03
:1013800050E7C046FF07000001FCFFFF14FE000805
:10139000FF030000FFFFFFFEFE070000FFFF0F80BE
:1013A0000DFCFFFF01F8FFFFF3030000D94500D952
:1013B000CBE000D1C6E03C0048460027009B013B43
:1013C00000935B46160E1B021E431302984633041D
:1013D0001B0C9946310C0191FEF724FF4A4642430B
:1013E0000B04210C050019438A4207D98919013DD4
:1013F0008E4203D88A4201D9851E8919881A01991B
:10140000FEF710FF09048C464A4621046446424315
:10141000090C030021438A4204D98919013B8E42F9
:1014200000D8F1E02D041D43AB464346891A4246DD
:10143000280C12041D0C5B46140C22001B041B0C10
:101440005A4303946B434443029568431B19150C9C
:10145000EB189C4203D980246402A44660441C0C0F
:1014600015041B042D0C20185D19814277D373D00D
:101470000C1AA24A7D1BAF42BF419446009B7F429B
:101480006344E01B1C00864200D1DBE00199FEF7BB
:10149000C9FE4A4642430B04290C070019438A42FD
:1014A00007D98919013F8E4203D88A4201D9871E84
:1014B0008919881A0199FEF7B5FE09044A4689463A
:1014C00029044D464243090C030029438A4207D9A7
:1014D0008919013B8E4203D88A4201D9831E89199A
:1014E0003F04891A3A00039F1A43380013041B0C67
:1014F000584381460298150C6F4343434543484681
:10150000000C8446DB1963449F4203D980204002CB
:101510008446654448461F0C00041B04000C7D19DA
:101520001818A94200D284E000D17FE001231A43B9
:1015300057E680234A461B0313431B031B0BAA4693
:101540006F4A6FE6BA4200D935E74B46DC075808C8
:101550007B081C43FF0734E70024AF4289D247448D
:101560004745A4415B466442A4196418013BA64266
:101570001ED2A0426DD800D1B6E0241A9B4678E76F
:1015800003005A46283B9A400027914688E6584671
:1015900000F05EFF203072E603005246283B9A407E
:1015A00093460022B4E6504600F052FF20309AE6FF
:1015B000A642E2D1B845DCD9341A9B4659E71F2B25
:1015C00065DC504C0099A4465C46614408008C40A0
:1015D00011008240D940501E82410C4314435A46A8
:1015E000DA401300620709D00F222240042A05D0F6
:1015F0002200141D9442894149425B181A0262D5A7
:101600000122002300270DE68A4200D80AE7831E44
:10161000891907E70F231340042B00D1E6E5171DB6
:101620009742924153429B44FA08E0E5002800D1DA
:10163000D7E57118531EB14227D3A94215D358D00C
:101640001A0073E7002B00DC04E6012300229B4410
:10165000CDE502234744474589415B429C464942C8
:1016600089190C19E344241A03E743465F004745F0
:101670009B41B8465B429E19023A8919A94200D0A3
:1016800054E7404500D051E7ABE51A00F6E71F21CB
:101690005F4649420C1BE740202B07D01A49009BAC
:1016A0008C46634418005B4683401A43501E8241B7
:1016B0003A4307270023174009D00F210023114088
:1016C0001400042995D122005F075B021B0BD2088E
:1016D00017430022A6E5802359461B030B431B0337
:1016E00017001B0B064A9DE5BD42B2D89B4600245D
:1016F000BFE68045B9D31A00C3E7C046FF03000028
:10170000FF0700001E0400003E040000F0B557462D
:10171000DE464E464546E0B5834606000F034800C8
:1017200087B092461D003F0B400DCC0F002800D122
:101730006FE0DE4B984238D08023FF001B041F432C
:10174000730F3B430193DA4B0027994600239B46D6
:10175000F60081442B0369001B0B52469846490D45
:10176000ED0F002900D185E0D04B994200D173E004
:101770004346DA0080231B0413435246CC48520FE1
:1017800084461343524600206144D200894421001C
:10179000694000918C46012149448A460F2F00D9A7
:1017A00090E0C449BF00CF59BF465B463B4301931D
:1017B00000D06AE102230827002681469B46C9E73C
:1017C00032005846019B61460091022800D175E025
:1017D000032800D1FEE1012800D02CE100230027DE
:1017E000002600253F032A0D3F0BB34812053A435C
:1017F00002401B051343009A5B00D1075B080B43B3
:101800003000190007B03CBC90469946A246AB4652
:10181000F0BD5B463B43019300D12FE1002F00D187
:10182000A5E1380000F014FE03000B3B1C2B00DD8B
:1018300096E11D22D31A5A460100DA405E46083965
:101840008F4013008E403B4301939C4B00271B1A93
:10185000994600239B467DE7414653460B439349F7
:101860008C46E144002B00D01AE1022202201743EB
:1018700000228CE7134300D10DE14346002B00D139
:1018800081E1404600F0E4FD02000B3A1C2A00DD35
:1018900072E10100434608398B4098461D239A1A8D
:1018A0005346D3401A004346134352468A404946A2
:1018B000081A824989468144002068E77B4B00274B
:1018C00000268EE7140C1204120C1100370C36049B
:1018D000350C794328008C462E00604360448346D3
:1018E00056432100300C80465846794340440291CB
:1018F000844506D98846802149028C46E044414609
:1019000002913604010C360C00048B4681191E0C22
:101910001B041B0C0391190079438C462800754366
:101920006544A8465843050C45447743A94203D96A
:10193000802149028C466744290C8C4639000004FA
:10194000000C2D042D186144AB44059159460491B7
:1019500001990F043F0C080C390051434243904653
:1019600002008C46090C8B4662437C4344445C4431
:10197000A04503D98021490288464244210C88466B
:1019800061460904090C8C463900594343437043AE
:101990007E430F0CF6182404BE19644442448C465E
:1019A000B34203D980235B0298464044029B6146C0
:1019B0009846049B370443449B46AB45AD416B427C
:1019C0000D0405992D0C8C467F196744FD18A84617
:1019D0005D462D19A542A44193466442A446C344E2
:1019E000DC448F42BF4198459B4193459241A445B9
:1019F000A4415B427F421F43360C52426442BF19EE
:101A00002243BF18624638184302D20D039913438C
:101A10006A020A43501E82416146ED0D2A434E027E
:101A20003243D90100D4B3E00126500832400243CA
:101A3000DE0732435B08224C5444002C62DD510720
:101A400009D00F201040042805D0101D904292416B
:101A500052429B180200D90104D580241948E400A1
:101A6000034054441848844200DD27E75E075B02C8
:101A7000D2081F0B630516435B0DB2E6002399469F
:101A80000133042700269B4664E603230197814621
:101A90000C279B465EE6012201201743002276E6D2
:101AA000032303201F43434671E6C046FF0700009F
:101AB00001FCFFFF54FE0008FFFF0F800DFCFFFF3D
:101AC000FF030000FFFFFFFEFE070000002380274A
:101AD00000933F030026434B83E6019B3200A4465C
:101AE000584670E6AC466EE6802701993F033942BE
:101AF0002DD03B422BD11F433F033F0B00951600D7
:101B0000384B6EE601252D1B382D00DD66E61F2DB6
:101B100040DC35481C005044160082408440EE40B2
:101B2000501E824134431443EB40620709D00F2218
:101B30002240042A05D02200141D944280414042D4
:101B40001B181A023ED501230027002649E68027EC
:101B5000019B3F031F433F033F0B0094214B40E693
:101B600003005A46283B9A40002601926DE65846EB
:101B700000F06EFC203057E603005246283B9A40A6
:101B80001300002293E6504600F062FC20307BE612
:101B9000CA4650E71F201E004042041BE640202D8D
:101BA00003D0124C5444A3401A43501E8241324386
:101BB00007260027164009D00F20002310401400EC
:101BC0000428B9D122005E075B021F0BD20816431E
:101BD000002306E680273F031F433F033F0B160009
:101BE000004BFEE5FF0700001E0400003E0400005D
:101BF000F8B557464E464546DE460C000903E0B5AB
:101C0000490A460F5F0031431E03DB0F760A9B46ED
:101C1000530F3343C84E6500C000E40FD2006D0D72
:101C2000A24681467F0D9C469046B74200D1B9E05E
:101C30005B46012673409B46EE1BA34500D183E023
:101C4000002E63DD002F00D0B1E06346134300D1C6
:101C500023E1731E002B00D0BAE1861A6346B0421E
:101C600080410125C91A4042091A0B0200D447E1FC
:101C700049024B0A98464346002B00D189E1404671
:101C800000F0E6FB0300083B1F2B00DD7CE1202277
:101C90003000D21A4146D040994002009E400A438B
:101CA0009D4200DD6AE15D1B6B1C1F2B00DD94E192
:101CB000202110003500C91A8E40DA408840DD40EE
:101CC000711E8E4111000722284300250643324031
:101CD000002A09D00F233340042B05D0331DB34213
:101CE000B641764289191E000B0200D43DE26A1CFF
:101CF000914B55056D0D9A4200D119E18F4AF608B6
:101D00000A40570752023743120B9BE0002E00D0C7
:101D1000C5E06E1C7605760D012E00DC48E16746B5
:101D2000861ACB1BB042BF417F42B8461F004346D4
:101D3000FF1A3B00B8461B0200D55FE137439AD13A
:101D400000220024002579E0002E00DCFAE0002FBC
:101D500000D18DE0784B9D4267D0802367461B04FD
:101D60001F43BC46382E00DC52E1634613435A1E23
:101D700093411E1886428041404209180B0200D44C
:101D8000BEE06D4B01359D4200D1D2E06B4A730835
:101D90000A4001210E401E435108D30707221E436B
:101DA000324095E71E00164300D045E740E7624BFE
:101DB0009D423AD0802367461B041F43BC46382E01
:101DC00000DDEBE01F2E00DC3AE133006746203BEC
:101DD000DF403B00202E05D04027BF1B6646BE409B
:101DE000324390464646721E96413343DAE0002B5A
:101DF00000D114E26346134300D168E180234E070B
:101E0000C008C9081B030643194208D06046C00831
:101E1000184204D163460100D2085E071643F3005E
:101E20009946C900720F444D11434B46DE08424BA0
:101E30004F073743CA089D4200D16EE012036D057B
:101E4000120B6D0D00211203130B0A0D12051A431C
:101E50003B4B2D0513402B435B00E4075B082343FA
:101E6000380019003CBC90469946A246AB46F8BDE6
:101E70006346134311D0731E002B00D007E1861870
:101E80008642804161444042091801250B0237D542
:101E900002257BE73E00614691463500C5E75C467A
:101EA000002D00D0E1E00B000343F3D0731C00D100
:101EB000ACE1214B9F4200D13AE1F343382B00DDE6
:101EC0006FE11F2B00DD8CE120250E00ED1AAE40E6
:101ED000B0460600AA46DE40454635432E0055462C
:101EE000D940A8406346451EA8415B1A9C46304332
:101EF000161AB242924163465242991A3D00B4E624
:101F000007223240002A00D0E4E60B4BF6084F07C8
:101F10003743CA089D4200D090E73B00134300D1ED
:101F2000A6E180231B031A431203120B024D89E71B
:101F300015000022002785E7FF070000FFFF7FFF55
:101F4000FFFF0F80002E00D0C7E06B1C5E05760DF2
:101F5000012E00DCF0E0C84DAB4200D1B9E085189D
:101F60000A00854289416244494251180722CE073E
:101F70006D082E43490832401D00A9E6BF49ED1AFD
:101F8000114007223240A3E6320028388240002662
:101F900086E6300000F05CFA203073E663461343B7
:101FA0005A1E9341C61AB04280414042091A5CE66B
:101FB0000E00674606431743002D5ED1002E00D069
:101FC000F3E0002F00D11EE15C46614691462CE70C
:101FD000A94FBE427BD01E00F1E610001F3DE84035
:101FE000202B03D04021CB1A9A401643731E9E41EA
:101FF0000722064332400021002583E7161A634674
:10200000B2428041591A40420B1A98465C4632E669
:102010001F2E00DDABE02027BB1B9A4663465746C8
:10202000BB40994613004F46F3401F433B005746C1
:10203000BA40571EBA4113436246F240891898E6E7
:102040002027BB1B9A4663465746BB409946130060
:102050004F46F3401F433B005746BA40571EBA4114
:1020600013436246F240891A9CE7834B9F425FD03C
:1020700080252D047342294320E7002E0CD1002F28
:1020800000D1D0E05C46614691467B4DCDE67A4F6B
:10209000BE421CD01E0065E6002F18D0C0084E07B7
:1020A00006438020C9080003014208D06346DC08CB
:1020B000044204D12100DA46D2085E071643F30039
:1020C000994601245346C900720F11431C406A4DC2
:1020D000ABE61D0000220027B4E6002D59D10B000D
:1020E000034300D1D6E6731C00D1B2E0624B9F429D
:1020F0001ED0F343382B6FDC1F2B00DD97E020252B
:102100000E00ED1AAE40B0460600AA46DE40454637
:1021100035432E005546A840D940451EA8418C4461
:102120000643B61896429241514261443D0025E66D
:102130003D006146914678E60B000343002D00D038
:1021400055E6002BF5D06346134300D16DE68618A3
:102150008642804161444042091800220B0200D4AB
:10216000D0E6464B01351940B2E5B1465DE6330095
:102170006746203BDF403B00202E05D04027BF1B99
:102180006646BE40324390464646721E96413343F1
:10219000EFE5394B9F42CBD080252D047342294374
:1021A000A8E70843411E8841A2E6002F00D13CE683
:1021B0006346861ACF1AB0429B415B42FB1A98468F
:1021C0001B024ED5161A6346B2429241591A524228
:1021D000891A5C4600227BE501430E00711E8E4188
:1021E0009FE71D000E00203DEE40B046202B04D09E
:1021F0004025EB1A99400843814648464346411E14
:102200008841184374E60022002417E6161A634634
:10221000B2429241591A5242891A3D0025E561465F
:102220009146154D01E680220024120379E61D0037
:102230000E00203DEE40B046202B04D04025EB1A86
:102240009940084381464E464346711E8E411E43C7
:1022500067E7861896429B4161445B42C9183D007E
:102260008CE547463743CED007224146324049E607
:1022700000273A00E6E5C046FF070000FFFF7FFFAA
:1022800030B5144D0A034B00120B5B0DC90F00242F
:10229000AB4211DD104CA34210DC802464032243C6
:1022A0000E4CE41A1F2C0CDD0D48C31ADA40130043
:1022B0005C42002900D11C00200030BD094BCC1825
:1022C000FAE7094DE040AC4663449A4013000343EB
:1022D000EEE7C046FE0300001D04000033040000CA
:1022E00013040000FFFFFF7FEDFBFFFF70B5002828
:1022F0002DD0C317C5185D40C40F280000F0A8F802
:10230000154B1B1A5B055B0D0A2815DD0B38854044
:1023100000222D032D0B002110002D030A0D2D0B83
:1023200012052A430D4D1B052A4013435B00E407A9
:102330005B082343190070BD02002900153291404B
:102340000A000B21081AC5402D032D0BE3E70024DA
:10235000002300250022DEE71E040000FFFF0F809F
:102360008446101C62468C46191C634600E0C04639
:102370001FB500F0F1F9002801D40021C8421FBDAB
:1023800010B500F049F94042013010BD10B500F021
:10239000E3F9002801DB002010BD012010BDC0467C
:1023A00010B500F0D9F9002801DD002010BD012092
:1023B00010BDC04610B500F06BF9002801DC00200C
:1023C00010BD012010BDC04610B500F061F9002815
:1023D00001DA002010BD012010BDC0468446081C53
:1023E0006146FFE71FB500F0C7F8002801D40021BF
:1023F000C8421FBD10B500F049F84042013010BD81
:1024000010B500F0B9F8002801DB002010BD012054
:1024100010BDC04610B500F0AFF8002801DD002067
:1024200010BD012010BDC04610B500F057F80028BF
:1024300001DC002010BD012010BDC04610B500F029
:102440004DF8002801DA002010BD012010BDC04663
:102450001C2101231B04984201D3000C10391B0AD4
:10246000984201D3000A08391B09984201D3000998
:10247000043902A2105C40187047C04604030202EF
:1024800001010101000000000000000070B54200E1
:102490004E024C0045026D0A120EC30F760A240E3E
:1024A000C90FFF2A0FD0FF2C11D00120A24200D06B
:1024B00070BDB542FCD18B420DD0002AF8D1280066
:1024C000451EA841F4E70120002DF1D1EBE70120E2
:1024D000002EEDD1E9E70020EAE7C04670B54A00DA
:1024E0004E02450244006D0A240EC30F760A120EF6
:1024F000C90FFF2C15D0FF2A0ED0002C15D1002AB1
:1025000001D1002E1CD0002D14D08B4227D00220E8
:10251000013B1840013870BD002EEED00220404231
:10252000F9E7002DFAD1FF2A0ED0002A0ED1002E95
:10253000EDD00BE001230139994308000130EAE7AF
:102540000020002DE7D0E2E7002EE7D18B42DED15C
:10255000944205DD0221581E08400138DBE70024C3
:10256000A24204DCB542D2D80020B542D3D2581ED4
:10257000012398430130CEE730B5420044024D02BA
:10258000C30F4800640A120E6D0A000EC90FFF2A1D
:1025900012D0FF280CD0002A12D1002819D1002D0A
:1025A00017D1002C2BD00220013B1840013826E027
:1025B000002DF0D0022022E0002CFBD1FF281FD0FC
:1025C00000281FD1002D1DD10220013B18400138E9
:1025D00015E0002C0ED08B42E5D10022904204DCA5
:1025E000AC42E0D80020AC4209D2581E01239843E7
:1025F000013004E00123013999430800013030BD66
:10260000002DD7D18B42CED18242E7DD0221581E68
:1026100008400138F3E7C046F0B54F464646D64677
:102620008446C0B58046194E18030F034D00000BB9
:102630005C0082463F0B6D0DC90F9146640DDB0FA8
:102640000120B5420AD0B44203D0A54201D157457A
:102650000CD01CBC90469946A246F0BD66463E434F
:10266000F7D1AC42F5D154461443F2D10120C8450C
:10267000EFD1994207D0002DEBD163461F433800BC
:10268000471EB841E5E70020E3E7C046FF0700002A
:10269000F0B54F464646D6464D00C0B50E03C90FAD
:1026A0008A462C491F035C008046360B6D0D91460F
:1026B0003F0B640DDB0F8D421ED08C4216D0002DD7
:1026C0001ED130438446002C01D13A4323D06246C8
:1026D000002A1AD09A4529D05146022001390840D3
:1026E00001381CBC90469946A246F0BD3900114302
:1026F000E5D002204042F4E73043FAD1AC420FD09B
:10270000002C0FD13A43E7D00CE00122013B934368
:1027100018000130E5E763460020002BE1D0DBE73D
:102720003A43E6D19A45D7D1A542D5DCA54205DB8F
:10273000BE42D1D808D00020BE42D2D2504601239A
:10274000013898430130CCE7C845C5D80020C845BA
:10275000F4D3C6E7FF070000F0B54F464646D6461D
:102760004D00C0B50E03C90F8A462E491F035C00F9
:102770008046360B6D0D91463F0B640DDB0F8D428D
:1027800018D08C4211D0002D18D130438446002C33
:102790001ED13A431CD163460020002B30D0514655
:1027A00002200139084001382AE039001143EAD0FB
:1027B000022025E03043FBD1AC4226D0002C26D1AC
:1027C0003A4324D15146022001390840013817E02C
:1027D0006246002A0FD09A45E1D1A54205DBBE42F0
:1027E000DDD819D00020BE420AD25046012301385C
:1027F0009843013004E00122013B9343180001306B
:102800001CBC90469946A246F0BD3A43D0D19A45A9
:10281000C5D1A542C3DCE0E7C845C0D80020C84503
:10282000E3D3EDE7FF07000080B500AF1E4B0022A9
:102830005A601D4B00229A601B4B9A681A4B8021EC
:1028400009060A439A60C046174B9B68002BFBDBC6
:10285000154B9A68144B01210A439A60124B0022CF
:10286000DA60114B00221A610F4A0F4B52695A610C
:102870000D4B00229A620C4B1B680122134005D0BD
:10288000094B1A68084B01210A431A60074B1A6862
:10289000064BC02109040A431A60054B00221A8026
:1028A000C046BD4680BDC046002401400827014007
:1028B000C803002080B500AF804B1B880D2B00D9CA
:1028C000DFE09A007E4BD3181B689F467D4B1B6848
:1028D0000422134000D1E1E07A4B01229A62774B47
:1028E0001B8801339AB2754B1A80D7E0754B9A68F2
:1028F000744B04210A439A60704B1B8801339AB2CF
:102900006E4B1A80D7E06F4B1B680422134000D136
:10291000C6E06C4B1B6C9AB26B4B5A81694B8022A0
:1029200092009A62654B1B8801339AB2634B1A80FE
:10293000B6E0644B9A68634B04210A439A605F4B8C
:102940001B8801339AB25D4B1A80B4E05D4B1B6863
:102950000422134000D1A5E05A4B1B6C9AB25A4B8B
:102960001A80584B8022D2009A62544B1B88013344
:102970009AB2524B1A8095E0524B9A68514B0421FF
:102980000A439A604D4B1B8801339AB24B4B1A8015
:1029900091E04C4B1B680422134000D184E0494B6A
:1029A0001B6C9AB2484B5A80464B802212019A62A5
:1029B000424B1B8801339AB2404B1A8074E0414B62
:1029C0009A68404B04210A439A603C4B1B880133B0
:1029D0009AB23A4B1A806EE03A4B1B6804221340BD
:1029E00064D0384B1B6C9AB2374B9A80354B80229F
:1029F00052019A62314B1B8801339AB22F4B1A80D5
:102A000054E0304B9A682F4B04210A439A602B4BB9
:102A10001B8801339AB2294B1A804CE0294B1B6862
:102A20000422134044D0274B1B6C9AB2264BDA8009
:102A3000244B802292019A62204B1B8801339AB268
:102A40001E4B1A8034E01F4B9A681E4B04210A4328
:102A50009A601A4B1B8801339AB2184B1A802AE0ED
:102A6000184B1B680422134024D0164B1B6C9AB2DF
:102A7000154B1A81114B1B8801339AB20F4B1A80E8
:102A800018E0104B01229A620E4B9A680D4B0421FC
:102A90000A439A60094B01221A800CE0C0460AE002
:102AA000C04608E0C04606E0C04604E0C04602E07A
:102AB000C04600E0C046C046BD4680BDC8030020F9
:102AC00094FE000800240140B800002080B500AF4B
:102AD00001F07AF803F076FC03F000FC02F0BEF897
:102AE00000F01AF803F0E0FB074BFF221A80074BB7
:102AF000FF221A80064B84229B5ADAB2054B1A70C9
:102B0000C046BD4680BDC0469A0000209800002007
:102B1000B80800200604002080B500AF07F0EAFDE9
:102B2000204B00225A701F4B00221A711D4B0022AD
:102B3000DA701D4BDB881A004023134006D00620B4
:102B400003F004FC174B0C221A701FE0164BDB88B5
:102B50001A00012313400CD1134BDB881A00802389
:102B60005B00134005D1104BDB881A008023134013
:102B700006D0002003F0EAFB0A4B0F221A7005E092
:102B8000012003F0E3FB074B01221A70064B1B895F
:102B90001A000423134002D0002003F0F5FBC046C6
:102BA000BD4680BD54090020B808002080B500AFA4
:102BB000CC4B1B689AB2CC4B1A80CC4B1B689AB298
:102BC000CB4B1A80CB4B1B689AB2CB4B1A80CB4BAA
:102BD0001B689AB2CA4B1A80CA4B1B689AB2CA4B7E
:102BE0001A80CA4B1B780F2B00D96EE19A00C84B94
:102BF000D3181B689F46C74B00221A71C64B002290
:102C00001A70C64B00221A80C04B00225A71BF4B6B
:102C100000229A72BD4B00221A70002003F096FB2E
:102C200007F068FD032007F0F1FB84E1B94B0022B7
:102C30001A7180E1B74B01221A71B64B01221A704A
:102C4000B24B02221A70B64B9A89B04BDA84B44B5D
:102C50001B891A000123134005D0B14B64229A5AF4
:102C6000B04B1A8004E0AE4B62229A5AAD4B1A80E8
:102C7000012003F06BFB07F03DFD032007F0C6FBCE
:102C800059E1A24BDB8C002B00D020E19F4B0322AB
:102C90001A701CE1A24B86229B5A1A00C123DB004A
:102CA000134000D015E19E4B1B881A00C123DB00A6
:102CB000134000D00DE19A4B5B881A00C123DB0062
:102CC000134000D005E1974B1B881A00944B5B8E94
:102CD000D21A844B1B689A4200DAFAE0904B9B8828
:102CE0001A001023134000D0F3E08D4B9B881A008C
:102CF0004023134000D0ECE0844B04221A70E8E03B
:102D0000874B9B88884A13409AB2854B9A807F4BA9
:102D100005221A707D4B0122DA700CE1804B9B8BEF
:102D20001A00764B1B689A420CDD7D4B9B8B1A0078
:102D3000744B1B689A4205DD744B25229B5C022B69
:102D400000D0C8E0714B1422DA70C4E000210320E7
:102D500005F034FC0121012005F030FC704BDB8BC9
:102D6000DBB21900012007F0EFFC684B01225A7119
:102D7000664B01229A72032003F0E8FA634B0722A4
:102D80001A70D8E0664B86229B5A1A00C123DB00DA
:102D9000134000D0A1E0624B1B881A00C123DB0066
:102DA000134000D099E05E4B5B881A00C123DB0022
:102DB000134000D091E05A4B1B8C1A00494B1B6802
:102DC0009A4200DD89E00121042005F0F7FB4F4B1A
:102DD00008221A7081E04F4B01221A714D4B0122DB
:102DE0001A704A4B01225A71484B01229A720021F3
:102DF000032005F0E3FB0121042005F0DFFB0121A6
:102E0000012005F0DBFB042003F0A0FA00F03EF9FE
:102E10003E4B09221A708EE03C4BDB8D002B05D017
:102E20003A4BDB8D013B9AB2384BDA85374BDB8D61
:102E3000002B54D1354B0A22DA8500F093F800F0CC
:102E400039F94CE0334B04221A71304B0D221A70C1
:102E50002E4B0A225A712D4B0A221A752B4B0A222D
:102E60009A720021002007F06FFC0021032005F07A
:102E7000A5FB062003F06AFA0121002002F07CFE87
:102E800003001A00294B1A80284B1B88180002F0F7
:102E9000C9FC50E0224B1B88002B06D1204B5B88DD
:102EA000002B02D1194B01221A701D4B9B881A006E
:102EB0002023134005D11A4B1B881A00022313400C
:102EC00038D01B4B01221A7034E0C04633E0C046B4
:102ED00031E0C0462FE0C0462DE0C0462BE0C046A2
:102EE00029E0C046B4000020C606002034080020B7
:102EF0006E000020840800200A04002068000020E2
:102F0000B0000020D8040020200200205409002036
:102F1000CCFE00084C090020DB0300200804002040
:102F2000B8080020B0090020FFFEFFFF3008002095
:102F3000F0060020C046094B1B88002B03D1074B2D
:102F40005B88002B06D0064B1B780D2B02D0044B60
:102F50000C221A70C046BD4680BDC046B80800208D
:102F60005409002080B586B000AF444B1A88444B0A
:102F70001B689BB2D31A99B2424B58229B5C1A0031
:102F800009B2404B1C325200D15200237B61132303
:102F9000FB1800221A700FE013217B181A78394BA6
:102FA0001C325200D35E1A007B699B187B617B1830
:102FB0001A787B1801321A701323FB181B780F2B19
:102FC000EAD9314B74229B5A1800FEF75DF8031CB6
:102FD000FB602C4B58229B5C1A002A4B1C3252007F
:102FE000D35E1800FEF706F8031CF968181CFDF7FD
:102FF000D9FB031CFB60244B76229B5A1800FEF77A
:1030000043F8031CBB607869FDF7F4FF031CB96843
:10301000181CFDF7C7FB031CBB60B968F868FDF717
:1030200027FA031C181CFDF7C5FF03007B607B68B3
:10303000642B03DD134B64221A6209E07B68092BC1
:1030400003DC104B0A221A6202E07A680D4B1A6206
:103050000C4B58229B5C0133D9B20A4B582299542D
:10306000084B58229B5C0F2B03D9064B582200219A
:103070009954C046BD4606B080BDC046B009002088
:10308000B400002054090020B808002080B500AF2B
:10309000064B2022002118000CF0F5FB044B5822AF
:1030A00000219954C046BD4680BDC0468C09002011
:1030B0005409002080B582B000AF6B4B00229A709B
:1030C0006A4B5B891A001023134006D0664B9B782D
:1030D00001221343DAB2644B9A70644B5B891A0085
:1030E0008023134006D0604B9B7802221343DAB250
:1030F0005D4B9A705C4B9B78012B00D19DE0022BBD
:1031000000D1A3E0584B1B6ADBB21900012007F085
:103110001BFB554B1B6A64211800FCF7FDFF0300E5
:103120001800FDF7B1FF031C7B60504B66229B5AD1
:1031300019004E4B68229B5ACB1A1800FDF75AFF14
:10314000031C191C7868FDF73FFC031C7B60786842
:10315000FDF758F903009AB2434B1A86424B1B6A9B
:1031600064211800FCF7D8FF03001800FDF78CFF5E
:10317000031C7B603D4B5B8C19003C4B6A229B5AC5
:10318000CB1A1800FDF736FF031C191C7868FDF7F1
:103190001BFC031C7B607868FDF734F903009AB2CE
:1031A000314B5A86304B1B6A64211800FCF7B4FF80
:1031B00003001800FDF768FF031C7B602B4B5A22AD
:1031C0009B5A1900294B5E229B5ACB1A1800FDF717
:1031D00011FF031C191C7868FDF7F6FB031C7B60CC
:1031E0007868FDF70FF903009AB21F4B9A861E4BC1
:1031F0001B6A64211800FCF78FFF03001800FDF71D
:1032000043FF031C7B60194B5C229B5A1900174B30
:1032100060229B5ACB1A1800FDF7ECFE031C191C08
:103220007868FDF7D1FB031C7B607868FDF7EAF84E
:1032300003009AB20C4BDA8611E00C4B7C229B5AAD
:10324000DBB21900012007F07FFA08E0074B7E226D
:103250009B5ADBB21900012007F076FAC046C0463F
:10326000BD4602B080BDC04654090020B808002009
:1032700080B582B000AFCE4B5B8B002B05D0CC4B22
:103280005B8B013B9AB2CA4B5A83C94B9B8B002B79
:1032900005D0C74B9B8B013B9AB2C54B9A83C44B5D
:1032A000DB78192B00D9B2E19A00C24BD3181B6806
:1032B0009F46BF4B0A221A75BD4B0A225A71012143
:1032C000012005F07BF9022003F040F8B84B2522DD
:1032D00000219954B64BDB780133DAB2B44BDA7083
:1032E000ACE1B54B5A8AB24B9A830121002005F01C
:1032F00065F9B14B5B891A00042313400AD0AE4B29
:103300001A8AAB4B5A83AA4BDB780133DAB2A84B4B
:10331000DA7093E1A64B0F22DA708FE1A44B5B8B3E
:10332000002B02D1A24B0822DA70A14B9B8B002B01
:1033300000D06EE1A04BDB89DBB21900012007F061
:1033400003FA9D4B9A8A9A4B9A830121032005F038
:1033500035F90021002005F031F9954BDB78013378
:10336000DAB2934BDA7054E1914B5B8B002B02D1B4
:103370008F4B0822DA708E4B9B8B002B00D04AE1DA
:103380008D4BDA8A8A4B9A830021032005F016F9C7
:10339000874BDB780133DAB2854BDA703BE1844B43
:1033A0005B8B002B05D1824BDB780133DAB2804B8B
:1033B000DA707F4B9B8B002B00D02EE17C4B0322DD
:1033C000DA702AE10021012007F0BEF97A4B1A8B4E
:1033D000774B9A83764BDB780133DAB2744BDA7031
:1033E0002CE1734B9B8B002B00D018E1724B1A8A97
:1033F0006F4B5A83704B5A8B6D4B9A83012100207F
:1034000005F0DCF86A4BDB780133DAB2684BDA702E
:1034100005E1674B5B8B002B02D1654B1922DA70FB
:10342000634B9B8B002B00D0FBE0634BDB89DBB253
:103430001900012007F088F95F4B9A8A5C4B9A8348
:103440000121032005F0BAF80021002005F0B6F8AC
:10345000574BDB780133DAB2554BDA70E1E0544B6D
:103460005B8B002B02D1524B1922DA70504B9B8B95
:10347000002B00D0D7E0504BDA8A4D4B9A830021C5
:10348000032005F09BF84A4BDB780133DAB2484B56
:10349000DA70C8E0464B5B8B002B02D1444B1922FB
:1034A000DA70434B9B8B002B00D0BEE0404B0822D0
:1034B000DA70BAE03E4B9B8B002B00D0B7E00021C6
:1034C000002005F07BF83A4BDB780133DAB2384B59
:1034D000DA70ACE0364B25229B5C012B00D0A8E0D3
:1034E000334BDB780133DAB2314BDA70A1E0334B86
:1034F000334A1A600A21012007F026F92E4BDA8E92
:103500002B4B9A832A4BDB780133DAB2284BDA70E3
:1035100094E0294BDB890A3B1800FDF76BFD031C87
:103520007B60254BDB8E1800FDF764FD031C191C26
:103530007868FDF737F9031C7B60204B1B687968BE
:10354000181CFCF795FF031C1A1C1C4B1A601B4B24
:103550001B68181CFCF756FF0200174BDB899A42C8
:1035600005D9154BDB891A00114B1A6207E0134B82
:103570001B68181CFCF746FF02000D4B1A620C4B2F
:103580001B6ADBB21900012007F0DEF8084B9B8BA9
:10359000002B50D1084BDB89DBB21900012007F06A
:1035A000D3F8034BDB780133DAB2014BDA7042E037
:1035B000540900200CFF0008B808002080060020F5
:1035C000000020411F4B25229B5C022B35D11D4B57
:1035D0001422DA7031E01B4B06221A70194B0022BC
:1035E000DA702BE00021012007F0AEF8164B86229E
:1035F0009B5A8022134399B2134B86229952114B46
:103600000022DA700021002002F07CFE16E0C046A5
:1036100014E0C04612E0C04610E0C0460EE0C046CE
:103620000CE0C0460AE0C04608E0C04606E0C046DE
:1036300004E0C04602E0C04600E0C046C046BD46C9
:1036400002B080BD54090020B808002080B500AF4A
:103650001A4B5B78022B17D002DC012B05D02AE035
:10366000032B27D00A2B1ED025E0072002F06EFE88
:10367000124B0E221A7007F03DF8104B5B780133A5
:10368000DAB20E4B5A7016E00121012004F096FFC9
:103690000121022004F092FF084B5B780133DAB27B
:1036A000064B5A7007E0054B01221A70034B0022AB
:1036B0005A7000E0C046C046BD4680BD5409002097
:1036C00080B500AFC24B5B8D002B05D0C04B5B8D2E
:1036D000013B9AB2BE4B5A85BD4B1B790A2B00D9D0
:1036E0006EE19A00BB4BD3181B689F46BA4B9B8870
:1036F000BA4A13409AB2B84B9A800021002007F0D2
:1037000023F80021032004F059FFB14B0B221A705B
:10371000AF4B0022DA70052002F018FEAC4B1B798B
:103720000133DAB2AA4B1A715BE10121002004F0E7
:1037300045FFA94B1B8ED9B2A54B2C229954A64B01
:103740004E229A5AA24B5A85A14B1B790133DAB209
:103750009F4B1A7145E19E4B5B8D002B00D031E1F0
:103760000121012004F02AFF9B4B5B891A000823EA
:10377000134006D0964B1B790133DAB2944B1A7181
:1037800020E1934B07221A711CE10121062004F06D
:1037900015FF0021072004F011FF8F4B5A8D8C4B31
:1037A0005A858B4B1B790133DAB2894B1A7118E1B8
:1037B000874B5B8D002B00D006E10121072004F030
:1037C000FDFE0021062004F0F9FE834B9A8D804B0C
:1037D0005A857F4B1B790133DAB27D4B1A71F3E0C6
:1037E0007B4B5B8D002B00D0F0E00021072004F024
:1037F000E5FE0021062004F0E1FE754B2C229B5CC7
:10380000002B07D0724B2C229B5C013BD9B2704B32
:103810002C2299546E4B2C229B5C002B06D16C4BB6
:103820001B790133DAB26A4B1A71CFE0684B04227C
:103830001A71CBE00121022004F0C0FE664B6C221D
:103840009A5A634B5A85624B1B790133DAB2604B4B
:103850001A71C6E05E4B5B8D002B00D0C0E05C4B64
:103860000A221A71BCE05C4B86229B5A002B00D1C5
:10387000A2E0594B86229B5A1A000123134006D01E
:10388000554B1B88012213439AB2534B1A80524B5B
:1038900086229B5A1A000223134006D04E4B1B88E7
:1038A000022213439AB24C4B1A804B4B86229B5AEE
:1038B0001A000423134006D0474B1B8804221343ED
:1038C0009AB2454B1A80444B86229B5A1A00082311
:1038D000134006D0404B1B88082213439AB23E4B3C
:1038E0001A803D4B86229B5A1A001023134006D0A3
:1038F000394B1B88102213439AB2374B1A80364B30
:1039000086229B5A1A002023134006D0324B1B8874
:10391000202213439AB2304B1A802F4B86229B5A97
:103920001A004023134006D02B4B1B884022134320
:103930009AB2294B1A80284B86229B5A1A00802360
:10394000134006D0244B1B88802213439AB2224B8B
:103950001A80214B86229B5A1A0080235B00134059
:1039600007D01D4B1B888022520013439AB21A4B7A
:103970001A80194B86229B5A1A0080239B00134001
:1039800007D0154B1B888022920013439AB2124B2A
:103990001A80114B86229B5A1A008023DB001340A9
:1039A00007D00D4B1B888022D20013439AB20A4BDA
:1039B0001A80074B0C221A70054B00221A7110E076
:1039C000C0460EE0C0460CE0C0460AE0C04608E033
:1039D0005409002074FF0008B8080020FFFEFFFF14
:1039E000C046C046BD4680BD80B500AF744B822244
:1039F00074499952724B01229A87714B00221A80A6
:103A00006F4B00225A806E4B00229A806C4B022230
:103A10001A816B4B04225A81694B0322DA80684B6E
:103A2000962252001A82664B3C225A82644B3C22F8
:103A30009A82634B1422DA82614B3C221A83604BD8
:103A400014225A835E4BB4225A845D4BB4229A846A
:103A50005B4B0222DA845A4B08221A85584B1E22ED
:103A60009A81574B1E225A85554B3C229A85544BBE
:103A70004E2228219952524BC82252009A83504B11
:103A800028221A844E4B4B22DA854D4B4222552177
:103A900099524B4B4A2237219952494B4822502187
:103AA0009952474B40225F219952454B4422322183
:103AB0009952434B462241219952414B96221A87F3
:103AC0003F4B0A2252425A873D4B03221A863C4BF7
:103AD0005422022199523A4B562205219952384BD1
:103AE000582205219952364B2022DA81344B252267
:103AF000DA83334B03225A86314B64229A86304B49
:103B00005222022199522E4B4C220021995200F050
:103B1000C1F82B4B5A2228219952294B5C2278213B
:103B20009952274B5E2228219952254B60227821F9
:103B30009952234B622232219952214B6422322125
:103B400099521F4B6622782199521D4B682296216B
:103B5000890099521A4B6A22962149009952184BB2
:103B60006C223C219952164B6E220F219952144B14
:103B7000702232219952124B722205219952104B18
:103B80007622FA21890099520D4B7422FA2189007C
:103B900099520B4B7822962189009952084B7A2230
:103BA00005219952064B7C221E219952044B7E22FC
:103BB0001E2199525A2000F07BF8C046BD4680BDB8
:103BC000B80800203903000080B500AF264B002262
:103BD0001A80264B00221A80254B00221A80254B82
:103BE0005A221900002006F011FA23498C235B00A9
:103BF0000A22180006F00AFA1E4B82229B5A1F4A1C
:103C000093420DD1FFF7F0FE1D4B5A221A801D4B37
:103C10001B78002B24D01C4B180006F02FFE1FE051
:103C2000144B4C229B5A180006F0B8FB03001A00F4
:103C3000134B1A800F4B82229B5A144A934205D091
:103C40000C4B82221149995200F024F80C4B1B882E
:103C500018000F4B2622190006F0D8F900F03CF8A6
:103C6000C046BD4680BDC046CE000020D003002027
:103C700092040020B808002038090020FFFF00004F
:103C80005C0400200604002014F900083903000039
:103C90001209002080B500AF044B5A221900002001
:103CA00006F0DCF9C046BD4680BDC046B80800201D
:103CB00080B582B000AF0200BB1D1A80BB1D1B88FF
:103CC00004492622180006F0C9F9C046BD4602B0D4
:103CD00080BDC0461209002080B500AFBB4B9B8F52
:103CE000FF2B02D9B94B01229A87B84B1B89B84ADE
:103CF000934202D1B54B02221A81B44BDB88B44AFD
:103D0000934202D1B14B0322DA80B04B4C229B5A32
:103D1000042B03D9AD4B4C2200219952AB4B1A8A8C
:103D20009623DB009A4203D9A84B962252001A82AE
:103D3000A64B5B8A782B02D9A44B3C225A82A34B18
:103D40009B8A782B02D9A14B3C229A829F4BDB8A1B
:103D5000782B02D99D4B1422DA829C4B1B8B782B3B
:103D600002D99A4B3C221A83984B5B8B3C2B02D98D
:103D7000964B14225A83954B5A229B5A782B03D97F
:103D8000924B5A2228219952904B5A229B5A042B2B
:103D900003D88E4B5A22282199528C4B5C229A5A76
:103DA000C8235B009A4203D9884B5C227821995240
:103DB000864B5C229B5A042B03D8844B5C227821CF
:103DC0009952824B66229A5A96231B019A4203D932
:103DD0007E4B6622782199527C4B5A8C96231B018C
:103DE0009A4202D9794BB4225A84784B6C229B5A5E
:103DF000782B03D9754B6C223C219952734B9A8CCA
:103E000096235B009A4202D9704BB4229A846F4B7E
:103E1000DB8C142B02D96D4B0222DA846B4BDB8CCA
:103E2000002B02D1694B0222DA84684B1B8D1E2BBA
:103E300002D9664B08221A85644B1B8D002B02D1D8
:103E4000624B08221A85614B9B89F02B02D95F4B8C
:103E50001E229A815D4B5A8D96239B009A4202D96D
:103E60005A4B1E225A85594B9A8D96239B009A4293
:103E700002D9564B3C229A85544B4E229A5A96238D
:103E80009B009A4203D9514B4E22282199524F4B05
:103E900068229A5A96231B019A4204D94B4B6822F6
:103EA000962189009952494B6A229A5A96231B01FE
:103EB0009A4204D9454B6A22962149009952434BB4
:103EC0005E229B5A782B03D9404B5E2228219952BF
:103ED0003E4B5E229B5A042B03D83C4B5E2228218A
:103EE00099523A4B60229A5AC8235B009A4203D9EE
:103EF000364B602278219952344B60229B5A042B16
:103F000003D8324B602278219952304B78229A5A4A
:103F1000E123DB009A4204D92C4B782296218900B8
:103F200099522A4BDB8EB42B02D9284B3C22DA86DD
:103F3000264BDB8FF02B02D9244B1E22DA87234B32
:103F400062229B5A4B2B03D9204B62223221995279
:103F50001E4B62229B5A272B03D81C4B6222322114
:103F600099521A4B9A8BAF239B009A4203D9174B55
:103F7000C82252009A83154B1B8C3C2B02D9134B41
:103F800028221A84114B1B8C132B02D80F4B28228A
:103F90001A840E4BDB8D4B2B02D90C4B4B22DA854E
:103FA0000A4BDB8D272B02D8084B4B22DA85074BB7
:103FB00042229B5A642B03D9044B42225521995229
:103FC000024B4A229B5A642B08D903E0B808002010
:103FD000FFFF0000754B4A2237219952734B48224C
:103FE0009B5A642B03D9714B4822502199526F4B35
:103FF00040229B5A642B03D96C4B40225F2199527B
:104000006A4B44229B5A642B03D9684B44223221C9
:104010009952664B46229B5A642B03D9634B462226
:1040200041219952614B1B8FC82B02D95F4B9622BD
:104030001A875E4B1B8F632B02D85C4B96221A8724
:104040005A4B5B8F1BB2002B03DD584B0A225242A6
:104050005A87564B5B8F1BB2143303DA534B0A2239
:1040600052425A87514B5022052199524F4B64229C
:104070009B5A4B2B03D94D4B6422322199524B4B07
:1040800064229B5A272B03D8484B64223221995231
:10409000464B72229B5A0A2B03D9444B72220521AC
:1040A0009952424B72229B5A002B03D13F4B7222F2
:1040B000052199523D4B1B8E052B02D93B4B032208
:1040C0001A863A4B542202219952384B5622052126
:1040D0009952364B58229B5A0A2B03D9334B5822FC
:1040E00005219952314B58229B5A002B03D12F4B5B
:1040F0005822052199522D4BDB89642B02D92B4B79
:104100002022DA81294B6E229B5A642B03D9274B3C
:104110006E220F219952254B70229B5A642B03D992
:10412000224B702232219952204BDB8B642B02D917
:104130001E4B2522DA831D4B7C229B5A642B03D90C
:104140001A4B7C221E219952184B7E229B5A642BBB
:1041500003D9164B7E221E219952144B5B8E0A2BDB
:1041600002D9124B03225A86104B7A229B5A142BE7
:1041700003D90E4B7A22052199520C4B7A229B5A75
:10418000042B03D8094B7A2205219952074B9A8EAA
:10419000FA235B009A4202D9044B64229A86034BAD
:1041A000522202219952C046BD4680BDB808002067
:1041B00080B500AFCC4B1B780133DAB2CA4B1A7012
:1041C000CA4B1B79042B2CD005DC012B3AD0022BD7
:1041D00000D1CDE009E0412B00D131E2802B01D1AB
:1041E00000F0D9FC402B00D133E1C14B00221A7002
:1041F000C04B00221A70C04AC04B1000190008239F
:104200001A000BF037FBBE4B1B78002B04D1BD4BC3
:1042100000221A7000F0E4FCBA4B80221A7000F001
:10422000DFFCB94B1B880021180001F0A5FC03003E
:104230001A00B54B1A80B44B1B88180001F0F2FA33
:1042400000F0CEFC01F032FCA84B1B78022B38D0DA
:1042500002DC012B06D089E0032B00D177E0042B90
:104260003FD083E0A94B1B68002B0BDA002001F044
:1042700085FF0200A04B1800110008231A000BF064
:10428000F9FA73E0A14B1B68642B0BDD642001F08D
:1042900075FF0200984B1800110008231A000BF05C
:1042A000E9FA63E0994B1B681BB2180001F066FF46
:1042B0000200914B1800110008231A000BF0DAFAE3
:1042C00054E0934B62229B5A1BB2180001F056FF38
:1042D0000200894B1800110008231A000BF0CAFADB
:1042E00044E08B4B1B891A000123134008D0824AFB
:1042F000884B1000190008231A000BF0BBFA35E0B8
:10430000834B1B891A000223134008D07A4A824B40
:104310001000190008231A000BF0ACFA26E07C4BC1
:104320001B891A000423134008D0734A7B4B1000EA
:10433000190008231A000BF09DFA17E06E4A784B1B
:104340001000190008231A000BF094FA0EE0704BCD
:104350009B8F1BB2180001F011FF0200664B180082
:10436000110008231A000BF085FAC04600F038FC53
:104370005E4B1B78022B0CD002DC012B05D066E0D3
:10438000032B52D0042B17D061E0584B01221A7135
:104390005DE05F4B62229B5A1BB2180001F0EEFEFB
:1043A0000200554B1800110008231A000BF062FAA6
:1043B000544B80221A704AE0524B80221A70544BA0
:1043C0001B891A000123134008D04B4A514B10009F
:1043D000190008231A000BF04DFA38E04C4B1B89EA
:1043E0001A000223134008D0434A4B4B1000190017
:1043F00008231A000BF03EFA29E0454B1B891A00EE
:104400000423134008D03C4A444B100019000823F1
:104410001A000BF02FFA1AE0374A414B100019002E
:1044200008231A000BF026FA11E0364B80221A708E
:10443000374B9B8F1BB2180001F0A0FE02002E4BE1
:104440001800110008231A000BF014FAC04600F0FF
:10445000C7FB274B00221A70264B00221A70294BEB
:1044600000221A70214B5B78653B132B00D9E5E0E5
:104470009A002C4BD3181B689F461F4A2A4B1000EA
:10448000190008231A000BF0F5F9D8E01A4A274B57
:104490001000190008231A000BF0ECF9CFE0164ABF
:1044A000234B1000190008231A000BF0E3F9C6E0B3
:1044B000114A204B1000190008231A000BF0DAF9FA
:1044C000BDE00D4A1C4B1000190008231A000BF028
:1044D000D1F9B4E0084A194B1000190008231A005A
:1044E0000BF0C8F9ABE0C046CC0300204C0900201B
:1044F000DA030020DB0300209C0000203CF90008C8
:10450000540900203404002030080020B4000020AA
:10451000B808002040F9000844F9000848F90008EC
:104520004CF90008A0FF000850F9000854F90008F1
:1045300058F900085CF9000860F9000864F90008FF
:10454000D04AD14B1000190008231A000BF092F941
:1045500075E0CC4ACD4B1000190008231A000BF06F
:1045600089F96CE0C74ACA4B1000190008231A00E9
:104570000BF080F963E0C34AC64B10001900082312
:104580001A000BF077F95AE0BE4AC34B100019002D
:1045900008231A000BF06EF951E0BA4ABF4B100025
:1045A000190008231A000BF065F948E0B54ABC4B26
:1045B0001000190008231A000BF05CF93FE0B14A23
:1045C000B84B1000190008231A000BF053F936E01D
:1045D000AC4AB54B1000190008231A000BF04AF939
:1045E0002DE0A84AB14B1000190008231A000BF067
:1045F00041F924E0A34AAE4B1000190008231A0029
:104600000BF038F91BE09F4AAA4B10001900082351
:104610001A000BF02FF912E09A4AA74B100019006C
:1046200008231A000BF026F909E0964AA34B100064
:10463000190008231A000BF01DF900E0C046CFE274
:104640009F4B00221A709F4B00221A709E4B8022B3
:104650001A709E4B5B78653B132B00D985E29A005C
:104660009B4BD3181B689F46984B5B88002B0BD144
:10467000844A984B1000190008231A000BF0FAF82E
:104680000021062003F09AFF904B5B88012B00D09D
:104690006DE27C4A904B1000190008231A000BF0C1
:1046A000E9F80121062003F089FF60E2874B5B886F
:1046B000002B0BD1734A874B1000190008231A00F6
:1046C0000BF0D8F80021072003F078FF7F4B5B88C0
:1046D000012B00D04DE26B4A7F4B100019000823DC
:1046E0001A000BF0C7F80121072003F067FF40E232
:1046F000764B5B88002B0BD1624A764B1000190079
:1047000008231A000BF0B6F80021022003F056FF30
:104710006E4B5B88012B00D02DE25A4A6E4B100085
:10472000190008231A000BF0A5F80121022003F05C
:1047300045FF20E2654B5B88002B0BD1514A654B4E
:104740001000190008231A000BF094F80021002033
:1047500003F034FF5D4B5B88012B00D00DE2494A2A
:104760005D4B1000190008231A000BF083F801219B
:10477000002003F023FF00E2544B5B88002B0BD199
:10478000404A544B1000190008231A000BF072F82D
:104790000021012003F012FF4C4B5B88012B00D05D
:1047A000EDE1384A4C4B1000190008231A000BF0B9
:1047B00061F80121012003F001FFE0E1434B5B8838
:1047C000002B0BD12F4A434B1000190008231A006D
:1047D0000BF050F80021032003F0F0FE3B4B5B8808
:1047E000012B00D0CDE1274A3B4B100019000823D4
:1047F0001A000BF03FF80121032003F0DFFEC0E1B7
:10480000324B5B88002B0BD11E4A324B1000190033
:1048100008231A000BF02EF80021042003F0CEFE2E
:104820002A4B5B88012B00D0ADE1164A2A4B1000C1
:10483000190008231A000BF01DF80121042003F0D1
:10484000BDFEA0E1214B5B88002B0AD10D4A214B14
:104850001000190008231A000BF00CF81F4B00225F
:104860001A701A4B5B88012B00D08EE1054A1A4B57
:104870001000190008231A000AF0FCFF174B012250
:104880001A7082E19C00002068F900086CF90008A9
:1048900070F9000874F9000878F900087CF900083C
:1048A00080F9000884F9000888F900088CF90008EC
:1048B00090F9000894F9000898F900089CF900089C
:1048C000DA030020DB030020340400204C09002020
:1048D000F0FF0008A0F90008A4F90008CE030020AA
:1048E000C14B5B88002B0BD1C04AC14B1000190093
:1048F00008231A000AF0BEFF0021082003F05EFE24
:10490000B94B5B88012B00D041E1B84AB94B10008C
:10491000190008231A000AF0ADFF0121082003F056
:104920004DFE34E1B44B1B681BB2180001F026FCAD
:104930000200AE4B1800110008231A000AF09AFF7B
:1049400028E1AE4B1B681BB2180001F017FC0200F7
:10495000A64B1800110008231A000AF08BFF19E17A
:10496000A74B1B681BB2180001F008FC02009F4B0C
:104970001800110008231A000AF07CFF0AE1A14B7D
:104980001B681BB2180001F0F9FB0200974B1800DE
:10499000110008231A000AF06DFFFBE09A4B1B6818
:1049A0001BB2180001F0EAFB0200904B1800110046
:1049B00008231A000AF05EFFECE08C4A934B1000CB
:1049C000190008231A000AF055FF914B90221A7023
:1049D000E0E0864A8F4B1000190008231A000AF005
:1049E00049FF8B4BA0221A70D4E0894B00221A7029
:1049F000894B1B78092B02D9874B00221A70864BF2
:104A00001B78092B00D9C4E09A00844BD3181B688B
:104A10009F46764A824B1000190008231A000AF0BC
:104A200029FF50E0714A7F4B1000190008231A003B
:104A30000AF020FF47E06D4A7B4B10001900082365
:104A40001A000AF017FF3EE0684A784B1000190080
:104A500008231A000AF00EFF35E0644A744B100078
:104A6000190008231A000AF005FF2CE05F4A714B79
:104A70001000190008231A000AF0FCFE23E05B4A2C
:104A80006D4B1000190008231A000AF0F3FE1AE01B
:104A9000564A6A4B1000190008231A000AF0EAFE71
:104AA00011E0524A664B1000190008231A000AF060
:104AB000E1FE08E04D4A634B1000190008231A007C
:104AC0000AF0D8FEC04664E0514B80221A705E4B5B
:104AD0001B781A000223134008D0444A454B1000AB
:104AE000190008231A000AF0C5FE53E03F4A404B64
:104AF0001000190008231A000AF0BCFE4AE0444BDB
:104B000080221A70504B1B781A000423134008D0DF
:104B1000364A384B1000190008231A000AF0AAFE82
:104B200038E0324A324B1000190008231A000AF00C
:104B3000A1FE2FE0364B80221A70434B1B781A00DF
:104B40000823134008D0294A2A4B100019000823D3
:104B50001A000AF08FFE1DE0244A254B10001900B0
:104B600008231A000AF086FE14E0C04638E0C0466A
:104B700036E0C04634E0C04632E0C04630E0C046D1
:104B80002EE0C0462CE0C0462AE0C04628E0C046E1
:104B900026E0C04624E01E4B00221A702B4B002258
:104BA0001A702B4B00221A70104A2A4B1000190061
:104BB00008231A000AF05EFE274B9622D2001A80C4
:104BC000154B1B78052B0AD9074B40221A71064B4F
:104BD00065225A7005F08EFD1F4B00221A80C046D8
:104BE000C046BD4680BDC0464C0900209C00002048
:104BF000A0F90008A4F90008B4000020340800203F
:104C00008408002068000020D804002088F90008EB
:104C1000340400208CF90008CC0300204000010877
:104C2000A8F90008ACF90008B0F90008B4F90008C8
:104C3000B8F90008BCF90008C0F90008C4F9000878
:104C4000C8F90008CCF9000852090020DA03002056
:104C5000DB030020D0F900084809002080B500AF30
:104C6000074B180000F054F8064B180000F050F8FD
:104C7000054B180000F04CF8C046BD4680BDC0464C
:104C800060040020A80000207C08002080B500AF50
:104C90001B4806230122022100F048F81948072387
:104CA0000222022100F042F81748082303220221C1
:104CB00000F03CF8154B1B881A00402313400ED11E
:104CC000124B1B88802213439AB2104B1A800F4B51
:104CD0001B888022520013439AB20C4B1A800B4B54
:104CE0001B881A008023134007D1084B1B888022A1
:104CF000520013439AB2054B1A80C046BD4680BD90
:104D000060040020A80000207C0800206C00002027
:104D100080B582B000AF78607B6802225A807B68E1
:104D200001221A70C046BD4602B080BD90B587B062
:104D300000AFF8600C00100019000A23FB18221CB9
:104D40001A8008243B19021C1A80BB1D0A1C1A80F9
:104D50002A4B1B781A003B191B881A4113000122A9
:104D6000134004D01723FB1801221A7003E0172305
:104D7000FB1800221A70FB681B781722BA181278E9
:104D80009A4210D0FB681722BA1812781A70FB6882
:104D90000A22BA1812885A80FB685B88002B02D15D
:104DA000FB6801225A80FB685B88002B22D1FB68DC
:104DB0001B78002B0ED0BB1D1B8801229A401300CC
:104DC0001AB20F4B1B881BB213431BB29AB20C4B87
:104DD0001A800FE0BB1D1B8801229A4013001BB2F2
:104DE000DB431BB2064A128812B213401BB29AB2BE
:104DF000034B1A80C046BD4607B090BD5209002043
:104E00006C00002080B500AF294B1B881A0040239E
:104E1000134008D1274B48229B5A1BB21A00264B3D
:104E20001B689A4208DD234B86229B5A012293433A
:104E300099B2204B862299521D4B1B881A004023A1
:104E400013401DD11B4B48229B5A1BB21A001A4B10
:104E50001B689A4214DC174B86229B5A1A000123C6
:104E600013400DD1134B86229B5A0122134399B252
:104E7000104B862299520021012001F043FA13E0E1
:104E80000C4B1B881A00012313400DD0094B1B88C3
:104E9000012293439AB2074B1A80064B5B8801228A
:104EA00013439AB2034B5A80C046BD4680BDC046EC
:104EB0006C000020B8080020B400002080B500AFCE
:104EC000294B1B881A008023134008D1274B44220A
:104ED0009B5A1BB21A00264B1B689A4208DD234BD3
:104EE00086229B5A0222934399B2204B86229952E2
:104EF0001D4B1B881A00802313401DD11B4B4422DD
:104F00009B5A1BB21A001A4B1B689A4214DC174BAF
:104F100086229B5A1A00022313400DD1134B86227E
:104F20009B5A0222134399B2104B862299520121B7
:104F3000002001F0E7F913E00C4B1B881A00022354
:104F400013400DD0094B1B88022293439AB2074BA2
:104F50001A80064B5B88022213439AB2034B5A8095
:104F6000C046BD4680BDC0466C000020B808002089
:104F70008408002080B500AF294B1B881A0040230D
:104F8000134008D1274B48229B5A1BB21A00264BCC
:104F90001B689A4208DC234B86229B5A08229343C3
:104FA00099B2204B862299521D4B1B881A00402330
:104FB00013401DD11B4B48229B5A1BB21A001A4B9F
:104FC0001B689A4214DD174B86229B5A1A0008234D
:104FD00013400DD1134B86229B5A0822134399B2DA
:104FE000104B862299520021012001F08BF913E029
:104FF0000C4B1B881A00082313400DD0094B1B884B
:10500000082293439AB2074B1A80064B5B8808220A
:1050100013439AB2034B5A80C046BD4680BDC0467A
:105020006C000020B8080020B400002080B500AF5C
:10503000294B40229B5A1BB21A00284B1B689A42EC
:1050400005DA274B1B881A004023134008D1224B56
:1050500086229B5A1022934399B21F4B8622995263
:105060001D4B40229B5A1BB21A001C4B1B689A42D4
:105070001ADA1B4B1B881A004023134014D0164B1E
:1050800086229B5A1A00102313400DD1124B862200
:105090009B5A1022134399B20F4B8622995200213A
:1050A000012001F02FF913E00B4B1B881A0010238D
:1050B00013400DD0084B1B88102293439AB2064B25
:1050C0001A80054B5B88102213439AB2024B5A8018
:1050D000C046BD4680BDC046B8080020B4000020D0
:1050E0006C00002080B500AF294B1B881A0080237C
:1050F000134008D1274B44229B5A1BB21A00264B5F
:105100001B689A4208DC234B86229B5A2022934339
:1051100099B2204B862299521D4B1B881A0080237E
:1051200013401DD11B4B44229B5A1BB21A001A4B31
:105130001B689A4214DD174B86229B5A1A002023C3
:1051400013400DD1134B86229B5A2022134399B250
:10515000104B862299520021002001F0D3F813E071
:105160000C4B1B881A00202313400DD0094B1B88C1
:10517000202293439AB2074B1A80064B5B88202269
:1051800013439AB2034B5A80C046BD4680BDC04609
:105190006C000020B80800208408002080B500AF13
:1051A000294B1B881A008023134008D0274B462226
:1051B0009B5A1BB21A00264B1B689A4208DB234BF2
:1051C00086229B5A4022934399B2204B86229952C1
:1051D0001D4B1B881A00802313401DD01B4B4622F9
:1051E0009B5A1BB21A001A4B1B689A4214DA174BCF
:1051F00086229B5A1A00402313400DD1134B86225E
:105200009B5A4022134399B2104B86229952012196
:10521000002001F077F813E00C4B1B881A004023A4
:1052200013400DD0094B1B88402293439AB2074B81
:105230001A80064B5B88402213439AB2034B5A8074
:10524000C046BD4680BDC0466C000020B8080020A6
:105250008408002080B500AF0F4B1B881A00802304
:10526000134016D00C4B1B88802293439AB20A4BF2
:105270001A80094B5B88802213439AB2064B5A80EE
:10528000054B86229B5A8022934399B2024B862279
:105290009952C046BD4680BDB808002080B500AF19
:1052A000294B1B881A0080235B00134005D1264B35
:1052B0001B881A001023134008D1244B86229B5AC6
:1052C000234A134099B2214B862299521E4B1B88C8
:1052D0001A0080235B0013401CD11B4B1B881A0053
:1052E0001023134016D0194B86229B5A1A00802394
:1052F0005B0013400ED1154B86229B5A8022520030
:10530000134399B2114B862299520021002000F0DC
:10531000F9FF15E00D4B1B881A0080235B0013403A
:105320000ED00A4B1B880A4A13409AB2074B1A80C8
:10533000064B5B888022520013439AB2034B5A807B
:10534000C046BD4680BDC0466C000020B8080020A5
:10535000FFFEFFFF80B500AFC046BD4680BD80B5F3
:1053600000AFC046BD4680BD80B500AF9C4B1A88DB
:105370009C4B1B889A420CD0994B1A88994B1B88DE
:105380009A4202D9052005F041F8954B1A88954BB1
:105390001A80954B1A88954B1B889A4217D0934BCD
:1053A0001A88914B1A80924B1B78002B0FD0914B8F
:1053B000180005F063FA8D4B1B8818008E4B1022E5
:1053C00019000AF053FA8C4B180005F057FA844B79
:1053D0009A888A4B1B889A4220D0814B9A88874BA7
:1053E0001B889A4202D9042005F010F87C4B9A8859
:1053F000824B1A807E4B1B78002B0FD0804B1800FD
:1054000005F03CFA764B9B8818007B4B1022190064
:105410000AF02CFA784B180005F030FA744B1B7820
:10542000002B00D1B6E0774B1A88774B1B889A4245
:1054300000D18FE0754B180005F020FA724B1B88E5
:1054400018006D4B102219000AF010FA6A4B180070
:1054500005F014FA6C4B1A886A4B1A80604B86224E
:105460009B5A1A000123134003D0694B180005F022
:1054700005FA5B4B86229B5A1A000223134003D085
:10548000644B180005F0FAF9554B86229B5A1A0016
:105490000423134003D0604B180005F0EFF9504B84
:1054A00086229B5A1A000823134003D05B4B180036
:1054B00005F0E4F94A4B86229B5A1A001023134048
:1054C00003D0574B180005F0D9F9454B86229B5A5B
:1054D0001A002023134003D0524B180005F0CEF9D8
:1054E0003F4B86229B5A1A004023134003D04E4B59
:1054F000180005F0C3F93A4B86229B5A1A00802304
:10550000134003D0494B180005F0B8F9344B8622FC
:105510009B5A1A0080235B00134003D0444B1800B1
:1055200005F0ACF92E4B86229B5A1A0080239B0073
:10553000134003D03F4B180005F0A0F9284B8622FA
:105540009B5A1A008023DB00134003D03A4B18000B
:1055500005F094F92C4B1B881A002023134019D016
:10556000364B1A6A364B1B689A4213D0354B1800DB
:1055700005F084F9314B1B6A18001F4B0A221900F1
:105580000AF074F91C4B180005F078F92B4B1A6AD5
:105590002B4B1A60124BDB88012B13D9FFF732FC1F
:1055A000FFF78CFCFFF7E6FCFFF740FDFFF79AFDE5
:1055B000FFF7F4FDFFF74EFEFFF770FEFFF7CAFEA0
:1055C000FFF7CDFE064B1A88054B5B8813439AB252
:1055D000064B1A8000F038F8C046BD4680BDC04674
:1055E000B80800209A000020980000205E040020E7
:1055F00006040020D4F90008200100200E07002036
:10560000E0F90008B00800206C000020ECF9000868
:10561000F8F9000808FA000818FA000828FA000843
:1056200040FA00085CFA000874FA00088CFA0008D6
:10563000A0FA0008B4FA0008C8FA000854090020CB
:10564000B4090020E0FA000880B500AF404B9B8809
:105650001A000123134017D03D4B4A229B5A1BB21C
:105660001A003C4B1B689A4207DC394B9B8820226E
:1056700013439AB2364B9A8006E0354B9B88202222
:1056800093439AB2324B9A80314B9B881A00202365
:10569000134002D0304B01221A702D4B86229B5AA8
:1056A0001A00C123DB0013404DD1294B1B881A007F
:1056B000C123DB00134046D1254B5B881A00C12370
:1056C000DB0013403FD1224B42229B5A1BB21A00EF
:1056D000224B1B689A4207DC1D4B9B881022134308
:1056E0009AB21B4B9A8006E0194B9B881022934379
:1056F0009AB2174B9A80164B50229B5A1A00174B9E
:105700001B689A4206DD124B9B88402213439AB2D3
:105710000F4B9A800E4B9B881A004023134012D0E7
:105720000B4B50229B5A1900094B52229B5ACA1804
:105730000A4B1B689A4206DC054B9B884022934328
:105740009AB2034B9A8000F00BF8C046BD4680BD6C
:10575000B808002084080020F0060020B4000020D3
:1057600080B500AF2B4B1B78072B03D0294B1B7840
:10577000092B4CD1284B5B891A002023134012D0EF
:10578000254B9B8B1A00244B9B8ED21A234B1B68F4
:105790009A421ADD204B9B888022520013439AB212
:1057A0001D4B9A8011E01C4B9B8B1A001A4B9B8E51
:1057B000D21A1B4B1B689A4207DD174B9B8880222D
:1057C000520013439AB2144B9A80134B9B881A00D1
:1057D00080235B0013401AD00F4B5B891A0004230F
:1057E000134003D00B4B04221A7010E0002101205B
:1057F00004F0AAFF084B86229B5A8022134399B2D9
:10580000054B862299520021002000F07BFDC04606
:10581000BD4680BD54090020B80800206800002063
:10582000D804002080B582B000AF0200BB1D1A80F2
:105830008C4B1B88002B05D18A4B86229B5A002B50
:1058400000D182E0884B20221A70884B80221A7087
:10585000844B1B88180000F05DFA0300012B03D96C
:10586000834B01221A7002E0814B00221A70BB1D8B
:105870001B880A2B67D89A007E4BD3181B689F465B
:105880007D4A7E4B1000190008231A0009F0F2FF30
:105890005AE0794A7A4B1000190008231A0009F0DF
:1058A000E9FF51E0744A774B1000190008231A00F1
:1058B00009F0E0FF48E0704A734B1000190008231C
:1058C0001A0009F0D7FF3FE06B4A704B1000190037
:1058D00008231A0009F0CEFF36E0674A6C4B10002F
:1058E000190008231A0009F0C5FF2DE0624A694B30
:1058F0001000190008231A0009F0BCFF24E05E4ADA
:10590000654B1000190008231A0009F0B3FF1BE0D3
:10591000594A624B1000190008231A0009F0AAFF27
:1059200012E0554A5E4B1000190008231A0009F0D6
:10593000A1FF09E0504A5B4B1000190008231A0030
:1059400009F098FF00E0C04688E0464B5B88002BDA
:1059500000D180E0444B20221A70444B00221A7080
:10596000404B5B88180000F0D5F90300012B03D9E8
:105970003F4B01221A7002E03D4B00221A70BB1D02
:105980001B880A2B69D89A00474BD3181B689F467F
:10599000394A3A4B1000190008231A0009F06AFF2F
:1059A0005CE0354A364B1000190008231A0009F054
:1059B00061FF53E0304A334B1000190008231A00EE
:1059C00009F058FF4AE02C4A2F4B10001900082319
:1059D0001A0009F04FFF41E0274A2C4B1000190034
:1059E00008231A0009F046FF38E0234A284B10002C
:1059F000190008231A0009F03DFF2FE01E4A254B2D
:105A00001000190008231A0009F034FF26E01A4A92
:105A1000214B1000190008231A0009F02BFF1DE08C
:105A2000154A1E4B1000190008231A0009F022FF26
:105A300014E0114A1A4B1000190008231A0009F04B
:105A400019FF0BE00C4A174B1000190008231A002D
:105A500009F010FF02E0C04600E0C046C046BD4667
:105A600002B080BDB8080020DB0300203404002011
:105A7000AE000020680001089C000020E8FA000841
:105A8000ECFA0008F0FA0008F4FA0008F8FA000846
:105A9000FCFA000800FB000804FB000808FB0008F3
:105AA0000CFB000810FB00089400010880B500AF53
:105AB0002C4B1B891A000423134006D02A4B2022AA
:105AC0001A702A4B00221A7049E0274B00221A70E4
:105AD000264B40221A70234B9B88002B06D0234B69
